:020000040800F2
:1000000000500020CD170008C9170008C7170008C6
:10001000C7170008C7170008C7170008000000002E
:10002000000000000000000000000000C9170008E8
:10003000C917000800000000C91700082D060008B5
:10004000C7170008C7170008C7170008C717000818
:10005000C7170008C7170008C7170008C717000808
:10006000C7170008C7170008C7170008C7170008F8
:10007000C7170008C7170008C7170008C7170008E8
:10008000C7170008C7170008C7170008C7170008D8
:10009000C7170008C7170008C7170008C7170008C8
:1000A000C7170008C7170008C7170008C7170008B8
:1000B000C7170008C7170008C7170008C7170008A8
:1000C000C7170008C7170008C7170008C717000898
:1000D000C7170008C7170008C7170008C717000888
:1000E000C7170008C7170008C7170008C717000878
:1000F000C7170008C7170008C7170008C717000868
:10010000C7170008C7170008C7170008C717000857
:10011000C7170008C7170008C7170008C717000847
:10012000C7170008C7170008C7170008C717000837
:10013000C7170008C7170008C7170008C717000827
:10014000C7170008C7170008C7170008C717000817
:10015000F8B52F4E04463378042B02D0072B38D045
:10016000F8BD00F095FC2B4BB3F808181D46D1B92B
:10017000D3F8010000F17843A3F50053B3F5783FBD
:1001800005D32046BDE8F840012200F043BD2B789E
:10019000212B03D0412B17D100F0E4FAD5F8013020
:1001A000C5F8043810E0D3F80438023903EBC1274E
:1001B0000024B5F800389C4206DA164BE019195BAA
:1001C00000F0A0FA0234F4E700F074FC0523337069
:1001D000F8BD114B1B6813F47F3F17D000F058FC9B
:1001E0000E4B00221A6000F07FFC0D4845F6A52159
:1001F00000F094FC0B484FF47F7100F08FFC0A482C
:100200004FF47F4100F08AFC00F054FC01F042FB07
:1002100000000020200000201C200240102002408E
:1002200000F8FF1F08F8FF1F04F8FF1F042816D866
:10023000DFE800F003070A0D100009484FF4807151
:100240000BE00848102108E00748042105E00648B3
:10025000202102E004484FF4004100F0EDBB70475C
:1002600000080140000C01400010014038B508783A
:1002700000F07F00212852D14878013805284ED857
:10028000DFE800F0034D241A4620274D0BB11888F3
:1002900008B906230EE08C78C978244844EA012185
:1002A000A0F808181988A0F8001811681A8801F039
:1002B000F9FA03232B7034E01B4B1A780A2A30D149
:1002C000022201E0184B02221A702AE01648156833
:1002D00004780021032C04D0062C06D107240470D6
:1002E00003E004240470642400E00C4629701568BF
:1002F00000786C701468A1701468E1701468207143
:100300001268517106221A80094A049B1A6008E09B
:1003100005491268097801201170188038BD002045
:1003200038BD012038BD00BF0000002020000020A3
:100330005101000809B1FFF779BF042816D8DFE89A
:1003400000F003070A0D100009484FF480710BE01C
:100350000848102108E00848042105E0064820214B
:1003600002E005484FF4004100F064BB704700BF55
:1003700000080140000C014000100140334B10B553
:100380001A6892070BD11B6803F00C03082B06D1E7
:1003900003F1804303F588331B68DB0754D54FF422
:1003A000417000F04FFB022201232848002100F099
:1003B00015FA2648012100F03DFB2448012100F0F8
:1003C0003EFB044621483CB901222146134600F079
:1003D00005FA4FF4417033E001221346002100F08A
:1003E000FDF94FF4417000F03AFB40F2023000F0AA
:1003F00029FB02224FF400731548002100F0EEF9AA
:1004000013484FF4007100F017FB11484FF40071CE
:1004100000F015FB04460E4854B1002101224FF4B0
:10042000007300F0DBF940F2023000F018FB0BE043
:10043000214601224FF4007300F0D0F940F202305F
:1004400000F00DFB204610BD012010BD0010014042
:10045000000801401FB55F4B1A685F4B1340B3F1B2
:10046000005F2FD15D4B1A681C4612F47F3F1AD1F2
:10047000236813F47F341AD100F00AFB584B1C6038
:1004800000F032FB574845F6A52100F047FB5648DF
:100490004FF47F7100F042FB5448FF2100F03EFB17
:1004A00000F008FB03E0FFF769FF58B9E0E7504BA5
:1004B0004FF400521A60474B1B6883F308884D4B7A
:1004C0001B6898474C4B1B689B0710D000F0E0FA64
:1004D000434B00221A6000F007FB424845F6A52175
:1004E00000F01CFB40484FF47F7100F017FB00F058
:1004F0005BFA4FF4237000F0A5FA40F2023000F0EE
:10050000A1FA40F2033000F09DFA4FF4417000F080
:1005100099FA4FF4407000F095FA38480321002210
:100520004FF4807300F05AF935480321002210235C
:1005300000F054F9334A34481368032143F08073C0
:100540001360002248F2240300F048F92B484FF4CE
:10055000807100F06FFA2A48102100F06BFA48F21F
:100560002401294800F066FA002001F077F92748B5
:1005700001F06CF901F07EF901F084F924484E2372
:10058000037053234370452383705223C370492360
:100590000371412343714C2383712023C3711921BB
:1005A000083000F075F8042300931A4B1A490193A0
:1005B0004FF400630293194A194B1A4800F0C8FA25
:1005C00021217F22184B044600F0C3FB204600F097
:1005D000EBFAFBE7002000080000FE2F1C20024081
:1005E0001020024000F8FF1F08F8FF1F04F8FF1F4B
:1005F00008ED00E00420000820200240000801402F
:10060000000C01400400014000100140A0BB0D009F
:100610002C0800204C090020CC180008DE18000827
:1006200004000020E41900086D0200080F4B10B50B
:1006300018681C46042807DD092801DC05380AE093
:100640000E2804DCC0F10E00FFF7F0FD06E01328D1
:1006500004DCC0F113000021FFF76CFE2368034A9D
:100660000133142B08BF0023136010BD5008002075
:10067000044B1B680360044B1B684360034B1B68FF
:1006800083607047F0F7FF1FECF7FF1FE8F7FF1FCD
:1006900030B50C4685B0054601A8FFF7E9FF182CD8
:1006A00094BF04F1FF31182100238B420FDA04AA12
:1006B00002EB630212F80C2C07481409045D02F0E7
:1006C0000F02825CEC54EC1862700233EDE70023F9
:1006D0006B5405B030BD00BF79190008064B18688F
:1006E000064B1B68B3F5007F82BF054B1B681843A0
:1006F00000F03500704700BF0C200240E0F7FF1FFC
:100700004C20024038B504460D4600F0DBF9114B91
:100710001B68B3F5007F04D90F4B9C4201D90F4AE7
:1007200000E00F4A136843F001031360258000F0D6
:10073000C9F9084B1B68B3F5007F04D9064B9C42EE
:1007400001D9064A00E0064A136823F0010313604A
:1007500038BD00BFE0F7FF1FFFFF07085020024031
:100760001020024010B5044600F0ACF9154B1B6890
:10077000B3F5007F09D9144B9C4206D9134B1A6874
:1007800042F002021A60124A05E0124B1A6842F067
:1007900002021A60104A14601A6842F040021A609D
:1007A00000F090F9074B1B68B3F5007F04D9064BA6
:1007B0009C4201D9054A00E0064A136823F002036F
:1007C000136010BDE0F7FF1FFFFF07085020024035
:1007D0005420024010200240142002402DE9F04134
:1007E0004FF6E07796469C460268436800254CFA2F
:1007F00005F4E4071BD5072DACB28BBF3C4616466B
:100800001E46A40098BFA4B24FF00F0808FA04F8DF
:1008100026EA080604F102080EFA08F801FA04F4C0
:1008200048EA04043443082D2CBF234622460135F0
:100830000437102DBFB2DAD102604360BDE8F08109
:10084000024A136843F0807313607047001002403F
:10085000062827D8DFE800F004090E13181D22002F
:10086000114B1B689901FBD570470F4B1B681A0190
:10087000FBD570470C4B1B689B00FBD570470A4BA0
:100880001B689803FBD57047074B1B689907FBD57E
:100890007047064B1B689A07FBD57047044B1B68D3
:1008A0009B07FBD5704700BF00100240201002409C
:1008B0002410024006281FD8DFE800F004060B10C1
:1008C00015171900FFF7BCBF0C4A136843F080638B
:1008D00011E00A4A136843F080530CE0074A13689A
:1008E00043F4803307E0054A02E0054A00E0054A88
:1008F000136843F001031360704700BF001002400B
:100900002010024024100240034A136823F003031E
:1009100018431060704700BF04100240034A136878
:1009200023F4701343EA80401060704704100240C3
:10093000034A136823F4803343EA00401060704791
:1009400004100240034A136823F4003343EA404092
:100950001060704704100240034A136823F44043B8
:1009600043EA80301060704704100240034A136865
:1009700023F4605343EAC020106070470410024023
:10098000034A136823F4E06343EA002010607047D1
:1009900004100240034A136823F0F00343EA0010F6
:1009A000106070470410024008B50420FFF782FF72
:1009B0000420FFF74DFF0020FFF7A6FF0320FFF7FD
:1009C00079FF0320FFF744FF0120FFF79DFF002080
:1009D000FFF7E0FF0220FFF7BFFF0420FFF7D0FF83
:1009E0000020FFF7C3FF022000F048F80420FFF7C3
:1009F00095FF0120FFF79CFF0020FFF7A3FFFFF703
:100A00001FFF0020FFF724FF0220FFF77DFF044BAC
:100A1000044A05491360054A1160054A136008BD80
:100A200000A24A04140000200051250218000020F2
:100A30001C00002001617047090401617047806853
:100A400008407047430903F1804303F504331968F4
:100A500000F01F00012282400A431A6070474309D8
:100A600003F1804303F50433196800F01F000122ED
:100A7000824021EA02021A6070470000034A1368AC
:100A800023F0070318431060704700BF00200240A6
:100A9000054A136843F080031360044B044A1A604C
:100AA00002F188321A607047102002400420024090
:100AB00023016745024A136843F0800313607047BF
:100AC0001020024008B5FFF709FEC307FBD408BD9C
:100AD000034B044A1A6002F188321A60704700BF63
:100AE000082002402301674510B50B4CFFF7EAFFD1
:100AF00023689B0501D4FFF7EBFF236843F0200335
:100B00002360236843F040032360FFF7DBFF236883
:100B100023F02003236010BD1020024070B50B4C61
:100B200005460E46FFF7CEFF23689B0501D4FFF76D
:100B3000CFFF236843F0100323602E80FFF7C2FF2E
:100B4000236823F01003236070BD00BF1020024013
:100B50002DE9F0411E46036805468846174698472A
:100B6000069BC0F8D850C360079BC0F800800361A3
:100B7000BDF8203047608382084B8660C366084B0F
:100B80008366084B43660023C0F8C430C0F8C83001
:100B9000C0F8CC30C0F8D030BDE8F081790D000845
:100BA000D30D0008590E0008D0F8D8305B6A1847FA
:100BB00010B5D0F8D840A468A446BDE810406047FE
:100BC00037B50446002503688575C575DB79294668
:100BD0002A460095FFF7ECFFD4F8D83020465B6832
:100BE00029469847E3691BB103B0BDE83040184778
:100BF00003B030BD10B5D0F8D840E469A446BDE8D4
:100C00001040604710B5D0F8D840246AA446BDE82B
:100C100010406047D0F8D8301B691847D0F8D8305A
:100C20009B69184710B5044600210122FFF7F2FF27
:100C3000002384F82C3010BD38B50368828FC58E30
:100C4000DB79AD1A9D42A8BF1D46836BADB21A4435
:100C500000212B460446FFF7D5FFA84205D02046C9
:100C6000FFF7E0FF4FF0FF3038BDA38F0344A387A9
:100C700038BD38B503680446DD79838F00219D4275
:100C8000826B0FD22B46FFF7B5FF0223226884F850
:100C90002C30D379A16B0B44A363D279A38F9B1A19
:100CA000A38738BDFFF7A6FF032384F82C30002369
:100CB000A387A36338BD2DE9F34104460E4600F136
:100CC000440500F164082F6857B92046314604F105
:100CD000380204F13C0302B0BDE8F04100F012BB61
:100CE000697933782A790B409A420BD104F1400399
:100CF00000932046314604F1380204F13C03B84722
:100D0000012803D908354545DDD1DEE702B0BDE84D
:100D1000F08110B50369044683638B79CA7943EA8D
:100D200002238387FFF7C7FF70B1A18F204619B157
:100D3000BDE81040FFF79DBF0B460A46FFF75AFF7C
:100D4000042384F82C3010BD2046BDE81040FFF786
:100D500069BF70B5002600EBC6056C6C2CB101367E
:100D6000042EF8D14FF0FF3070BD85F8481085F89B
:100D700049206B64204670BD70B500F13006002537
:100D800005642946324608230446FFF73BFF08283E
:100D900004D02046BDE87040FFF744BFE38E1BB18E
:100DA00094F93020002A05DA20463146BDE870402B
:100DB000FFF7AFBFA28A9A42EBD32269A587A2634D
:100DC0002268D2799A4234BF0523062384F82C3056
:100DD00070BD90F82C3010B5062B044610D0072BB0
:100DE00024D0052B33D1FFF727FF002833DBA28F58
:100DF000E38E9B1A2268D27993422CDC062310E002
:100E0000FFF71AFF002826DB204604F13001FFF728
:100E100052FF48B100210B4620460A46FFF7EAFE82
:100E2000042384F82C3010BD204610E000210B462E
:100E30000A46FFF7E7FE002384F82C30236C1BB131
:100E4000204604F1300198470023236410BDBDE81B
:100E50001040FFF7E7BE10BD90F82C3010B5032B03
:100E6000044607D0042B07D0022B1CD1BDE810404C
:100E7000FFF7FFBE072313E0036C13B100F130014D
:100E8000984794F8303053B994F83130052B06D197
:100E9000D4F8D830618E5B682046C9B298470023E9
:100EA00084F82C3010BDBDE81040FFF7BBBE198898
:100EB000012984BF012119801368C27D01201A70A5
:100EC000704730B5C57D0D246C4340680D3C20440F
:100ED0008D880479A5420CD201241C808B88D0F81F
:100EE00009001B011B58126803B11B781370012005
:100EF00030BD002030BD19880120022984BF0221A5
:100F00001980116800230B7012685370704719889C
:100F10000120022984BF02211980116800230B706F
:100F200012685370704738B514461A882568022A2B
:100F300084BF02221A808988C9B2FFF76FFE003091
:100F400018BF01202870236800225A70012038BD84
:100F500008B589880122C9B2FFF75CFE012008BDEF
:100F600008B589880022C9B2FFF754FE012008BDE8
:100F700010B50B786BB94C887F2C0AD8D0F8D830D4
:100F8000847593F8302032B149885B68C9B29847BC
:100F900001E0002010BD012010BDF8B54B88C27DD6
:100FA00004469A420E4618D0C375D0F8D830DB6894
:100FB0009847D4F8C43083B100236364E364636565
:100FC000E36504F1C00504F1D00755F8043F13B1FF
:100FD000204671889847BD42F7D10120F8BD70B511
:100FE0001D46C37D0D225A4343680D3A1A440C46F0
:100FF000137989888B4216D9D2F809600A01B11891
:101000006388097999420ED9B2580AB1137000E089
:101010004BB9D0F8D43013B1A18862889847002327
:101020002B80012070BD002070BD2DE9F04F0546DA
:10103000488889B0C6B2000A022890461F460FD0E1
:10104000032800F0E180012840F01A812B6813602A
:101050002B683A881B78934228BF13463B8010E1E7
:101060002B693C88136001930D235E43D5F80480FF
:10107000019818F8065008EB0603A54228BF25463C
:1010800019462A46029300F00DFC019B641B18F8D8
:1010900006602B44A4B200220492029A1179BDF892
:1010A0001020914240F2AC8012010692029A0699F9
:1010B000D2F809200A44D2F80890B9F1000F14D0F0
:1010C00099F800801846A04528BFA04649464246E8
:1010D00000F0E8FB034699F80020C8EB04044544FF
:1010E00016444344A4B2ADB2B6B200220392029AAF
:1010F000D2F80910069A11440879BDF80C209042E4
:101100007BD94FF0150909FB02F9D1F80CB018464C
:101110001BF809800BEB090AA04528BFA0465146E1
:10112000424600F0BFFB03461BF80920DAF80D1019
:10113000C8EB0404454416444344A4B2ADB2B6B26D
:10114000A9B1DAF811801846A045A8BFA0461FFA39
:1011500088F8424600F0A6FB0346DAF81120C8EBF7
:101160000404454416444344A4B2ADB2B6B20022CE
:101170000592BDF814909AF804204A453AD9DAF855
:1011800009C0C9EB09191CF809800CEB090BA04533
:1011900028BFA046184659464246CDF81CC000F06C
:1011A00081FB0346DDF81CC0DBF807101CF80920A2
:1011B000C8EB0404454416444344A4B2ADB2B6B2ED
:1011C000A9B1DBF80B801846A045A8BFA0461FFABE
:1011D00088F8424600F066FB0346DBF80B20C8EBBC
:1011E0000404454416444344A4B2ADB2B6B2059AD1
:1011F0000132BDE7039A013278E7049A01324BE7E6
:10120000019B5E803D8039E02C6956B90923A370AB
:101210000423E37023703B88042B28BF04233B8006
:1012200028E0A868013E60B3EB689E4228DA40F2ED
:1012300009438A889A4223D150F8260000F03DFBEA
:1012400001304000C0B220703B884FEA86099842C6
:1012500028BF1846002238803B885B08013B9A4231
:1012600008DAAB6853F80930995C04EB4203598003
:101270000132F1E703236370C8F80040012000E069
:10128000002009B0BDE8F08F30B54C78092C07D8A4
:10129000044D55F824401CB1A446BDE830406047D9
:1012A000002030BD8C19000830B54C780B2C07D8C5
:1012B000044D55F824401CB1A446BDE830406047B9
:1012C000002030BDB419000810B54C78012C03D0B3
:1012D0000AD3032C04D00CE04C8854B9064C04E02B
:1012E0004C8834B9054C00E0054CA446BDE81040DC
:1012F0006047002010BD00BF610F0008510F0008BB
:10130000270F000810B50C7814F0600F12D104F00C
:101310001F04012C0AD005D3022C0BD1BDE81040CC
:10132000FFF7D2BFBDE81040FFF7AEBFBDE81040E9
:10133000FFF7BABF002010BD1E4B02221A601E4AE2
:10134000136843F080031360D36A43F41023D3621D
:101350001A4B1A68002AFBDA1A6842F001021A6076
:101360001A6812F00102FBD1134915480B6843F0CB
:10137000804343F470530B60D1F8F43743F0030318
:10138000C1F8F4370F4B1A600F4A80231360A0F89E
:10139000DC3052F81C3C43F0010342F81C3C0B4B80
:1013A0000B4A1A600F22C3F804280122C3F8F82759
:1013B000704700BF140000500C0000501000005097
:1013C00054080020000E0050240000501800005067
:1013D00018280480D0F8D830DA6AD2F8003823F41C
:1013E000FE6343EA0111C2F8001870472DE9F04787
:1013F00011F07F06089FD0F8D8E003F07F0441D1B8
:101400003F2BDEF82C2002D9C2F8006909E01F2B1F
:1014100001D9012103E00F2B8CBF02210321C2F867
:101420000019DEF82C20A1B2C2F81019DEF82C4009
:1014300041F00051D4F8002941F4002142F0084263
:10144000C4F80029DEF82C20C0F8E410C2F8101B04
:10145000DEF82C109B08D1F8002B42F00842C1F8AE
:10146000002BBEF83210DEF82C2041EA03419162D5
:10147000B0F8DC100B449BB2A0F8DC30A0F8DE30F2
:10148000BDE8F08711F0800F4FEA82454FEA461120
:101490002BD0B0F8DCC0DEF82C204FEA93094CEAE0
:1014A000094A06F1400842F828A0DEF82C20A4B230
:1014B00002F51162CC44A0F8DCC05450DEF82C4098
:1014C00045F0184201F5106142F4004251F804E081
:1014D0001A4342EA86524EEA02020A512FB30C2303
:1014E00003FB06004766BDE8F08744F4002400EBE8
:1014F0008602C2F8E440DEF82C2002F53162545036
:10150000DEF82C2001F5306145F0144451F802E07A
:1015100044F4004423434EEA03038B502FB10C23C1
:1015200003FB06008766BDE8F087BDE8F087B0F8EA
:10153000DE30A0F8DC30704710B5D0F8D83051B9A3
:10154000DC6AD4F8000912B140F4001001E020F484
:101550000010C4F80009080646BF01F07F014831B9
:101560005831490122B1DA6A8B5843F4001308E07C
:10157000D86A0A5822F400120A50DA6A8B5843F0EB
:1015800080538B5010BD11F0800FD0F8D8301ABFA7
:1015900001F07F0148315831DB6A4901C858C0F376
:1015A000405070470B0611D44318583183F8E0209F
:1015B0004901D0F8D83022B1DA6A8B5843F0006381
:1015C00003E0DA6A8B5843F080638B50704770B544
:1015D000D0F8D85001F07F01E86A4C0100F51160A5
:1015E000065936031AD443F400260651EE6A04F570
:1015F0001064A059013140F00440A051E86A00EBAA
:10160000013110461C1A14448D1A002C054403DDC8
:1016100050F8044B2C60F5E7184670BD002070BDF3
:10162000F7B50C46B0F8F41017468B4228BF0B46AE
:101630001E46C91AD0F8D830621CDB6A0546A0F8ED
:10164000F41003EB023338463246D91B032A014417
:1016500004DD0968043A40F8041BF6E72AB10B6878
:1016600002A941F8043D00F01DF9D5F8D81005EBAA
:101670008400CB6AD0F8E400620103F5316398502E
:101680002C4494F8E000C96A02F5306200285358EF
:1016900014BF4FF008404FF004400343304653500E
:1016A00003B0F0BDD0F8D820F8B5D36A04465E691F
:1016B000B50409D54FF400515961538EA0F8DC30C0
:1016C000BDE8F840FFF77CBAF00631D51B6A03F499
:1016D000B012B2F5802F67D103F4F012B2F5402FAB
:1016E00003F00F05C3F30A13A4F8F4300CBF022271
:1016F00001224FF47A7300BF013BFCD105EB450397
:10170000134404EB83035B6E13B1204629469847CC
:101710000135B4F8F4202D030023934205DAD4F800
:10172000D8100433C96A6958F7E70023A4F8F430E5
:101730000025D4F8D8306F01DB6A03F60813DB59B3
:10174000D9070ED50C2303FB05435B6E13B120466E
:10175000E9B29847D4F8D8300122DB6A03F60813BF
:10176000DA510135042DE4D1320508D5236A03B1DD
:101770009847D4F8D8304FF40062DB6A5A61002EE3
:1017800008DA636A03B19847D4F8D8304FF00042C2
:10179000DB6A5A61330707D5A36A03B19847D4F8C7
:1017A000D8300822DB6A5A61F8BDD0F8D830DA6A3E
:1017B000D2F8043811B143F0020301E023F0020330
:1017C000C2F804387047FEE7704700000022154950
:1017D00015485318834204D2144BD3585350043243
:1017E000F5E7134A934203D200221A600433F8E764
:1017F000104C114B9C4203D254F8043B9847F8E735
:101800000E4C0F4B9C4203D254F8043B9847F8E728
:10181000FEF720FE0B4C0C4B9C4203D254F8043BC9
:101820009847F8E70000002020000020181A000860
:101830004C110020181A0008181A0008181A00087D
:10184000181A0008181A0008181A0008024B20F08D
:101850007F401860704700BF14E000E0044A00F0C9
:101860000400136823F0040303431360704700BFB0
:1018700010E000E0024A136843F00203136070476F
:1018800010E000E0024A136843F001031360704760
:1018900010E000E0014A024B1A60FEE70400FA057E
:1018A0000CED00E010B5431E0A44914204D011F83B
:1018B000014B03F8014FF8E710BD034613F8012B65
:1018C000002AFBD1181A01387047000012010002EB
:1018D00000000040501D0F600001010203010902D9
:1018E0000000010100C032EC1800080000000000F8
:1018F0000100000000000000FC18000809040000BE
:1019000000FE010204000000001119000809000097
:1019100000092109FF0000081A015472616E736901
:1019200074696F6E20526F626F7469637320496EC1
:10193000632E004C6973612F4D20285570677261CA
:101940006465292056312E310040496E7465726EEF
:10195000616C20466C6173682020202F307830380D
:101960003030303030302F342A3030324B612C312F
:1019700032342A3030324B6700303132333435362E
:10198000373839414243444546000000F70E00080D
:101990000000000000000000000000000000000047
:1019A000710F00082B10000800000000AF0E0008A7
:1019B0009B0F00080F0F000800000000000000004F
:1019C0000000000000000000000000000000000017
:1019D000000000000000000000000000C30E00082E
:1019E000DF0F000839130008D5130008ED130008B5
:1019F0002F15000839150008A515000887150008DF
:101A0000CF15000821160008A5160008AB1700081E
:081A10000000005001008000FD
:101A1800020000001A190008331900082C080020D9
:101A28004919000800127A0000127A0000127A00A0
:04000005080017CD0B
:00000001FF
